{
  "_format": "hh-sol-artifact-1",
  "contractName": "FusioEscrow",
  "sourceName": "contracts/FusioEscrow.sol",
  "abi": [
    {
      "inputs": [
        {
          "internalType": "address",
          "name": "_token",
          "type": "address"
        },
        {
          "internalType": "address",
          "name": "_orchestrator",
          "type": "address"
        }
      ],
      "stateMutability": "nonpayable",
      "type": "constructor"
    },
    {
      "inputs": [
        {
          "internalType": "address",
          "name": "owner",
          "type": "address"
        }
      ],
      "name": "OwnableInvalidOwner",
      "type": "error"
    },
    {
      "inputs": [
        {
          "internalType": "address",
          "name": "account",
          "type": "address"
        }
      ],
      "name": "OwnableUnauthorizedAccount",
      "type": "error"
    },
    {
      "anonymous": false,
      "inputs": [
        {
          "indexed": true,
          "internalType": "bytes32",
          "name": "jobId",
          "type": "bytes32"
        },
        {
          "indexed": false,
          "internalType": "address",
          "name": "requester",
          "type": "address"
        },
        {
          "indexed": false,
          "internalType": "address",
          "name": "worker",
          "type": "address"
        },
        {
          "indexed": false,
          "internalType": "uint256",
          "name": "amount",
          "type": "uint256"
        }
      ],
      "name": "EscrowLocked",
      "type": "event"
    },
    {
      "anonymous": false,
      "inputs": [
        {
          "indexed": true,
          "internalType": "bytes32",
          "name": "jobId",
          "type": "bytes32"
        },
        {
          "indexed": false,
          "internalType": "address",
          "name": "worker",
          "type": "address"
        },
        {
          "indexed": false,
          "internalType": "uint256",
          "name": "amount",
          "type": "uint256"
        },
        {
          "indexed": false,
          "internalType": "bytes32",
          "name": "receiptHash",
          "type": "bytes32"
        }
      ],
      "name": "EscrowReleased",
      "type": "event"
    },
    {
      "anonymous": false,
      "inputs": [
        {
          "indexed": true,
          "internalType": "bytes32",
          "name": "jobId",
          "type": "bytes32"
        },
        {
          "indexed": false,
          "internalType": "address",
          "name": "requester",
          "type": "address"
        },
        {
          "indexed": false,
          "internalType": "uint256",
          "name": "amount",
          "type": "uint256"
        },
        {
          "indexed": false,
          "internalType": "enum FusioEscrow.FaultClass",
          "name": "faultClass",
          "type": "uint8"
        }
      ],
      "name": "EscrowReturned",
      "type": "event"
    },
    {
      "anonymous": false,
      "inputs": [
        {
          "indexed": true,
          "internalType": "address",
          "name": "previousOwner",
          "type": "address"
        },
        {
          "indexed": true,
          "internalType": "address",
          "name": "newOwner",
          "type": "address"
        }
      ],
      "name": "OwnershipTransferred",
      "type": "event"
    },
    {
      "inputs": [
        {
          "internalType": "bytes32",
          "name": "jobId",
          "type": "bytes32"
        }
      ],
      "name": "getJob",
      "outputs": [
        {
          "components": [
            {
              "internalType": "bytes32",
              "name": "jobId",
              "type": "bytes32"
            },
            {
              "internalType": "address",
              "name": "requester",
              "type": "address"
            },
            {
              "internalType": "address",
              "name": "worker",
              "type": "address"
            },
            {
              "internalType": "uint256",
              "name": "amount",
              "type": "uint256"
            },
            {
              "internalType": "uint256",
              "name": "startedAt",
              "type": "uint256"
            },
            {
              "internalType": "uint256",
              "name": "completedAt",
              "type": "uint256"
            },
            {
              "internalType": "enum FusioEscrow.JobStatus",
              "name": "status",
              "type": "uint8"
            },
            {
              "internalType": "enum FusioEscrow.FaultClass",
              "name": "faultClass",
              "type": "uint8"
            },
            {
              "internalType": "bytes32",
              "name": "receiptHash",
              "type": "bytes32"
            }
          ],
          "internalType": "struct FusioEscrow.EscrowJob",
          "name": "",
          "type": "tuple"
        }
      ],
      "stateMutability": "view",
      "type": "function"
    },
    {
      "inputs": [
        {
          "internalType": "bytes32",
          "name": "jobId",
          "type": "bytes32"
        }
      ],
      "name": "getJobStatus",
      "outputs": [
        {
          "internalType": "enum FusioEscrow.JobStatus",
          "name": "",
          "type": "uint8"
        }
      ],
      "stateMutability": "view",
      "type": "function"
    },
    {
      "inputs": [
        {
          "internalType": "bytes32",
          "name": "",
          "type": "bytes32"
        }
      ],
      "name": "jobs",
      "outputs": [
        {
          "internalType": "bytes32",
          "name": "jobId",
          "type": "bytes32"
        },
        {
          "internalType": "address",
          "name": "requester",
          "type": "address"
        },
        {
          "internalType": "address",
          "name": "worker",
          "type": "address"
        },
        {
          "internalType": "uint256",
          "name": "amount",
          "type": "uint256"
        },
        {
          "internalType": "uint256",
          "name": "startedAt",
          "type": "uint256"
        },
        {
          "internalType": "uint256",
          "name": "completedAt",
          "type": "uint256"
        },
        {
          "internalType": "enum FusioEscrow.JobStatus",
          "name": "status",
          "type": "uint8"
        },
        {
          "internalType": "enum FusioEscrow.FaultClass",
          "name": "faultClass",
          "type": "uint8"
        },
        {
          "internalType": "bytes32",
          "name": "receiptHash",
          "type": "bytes32"
        }
      ],
      "stateMutability": "view",
      "type": "function"
    },
    {
      "inputs": [
        {
          "internalType": "bytes32",
          "name": "jobId",
          "type": "bytes32"
        },
        {
          "internalType": "address",
          "name": "worker",
          "type": "address"
        },
        {
          "internalType": "uint256",
          "name": "amount",
          "type": "uint256"
        }
      ],
      "name": "lockEscrow",
      "outputs": [],
      "stateMutability": "nonpayable",
      "type": "function"
    },
    {
      "inputs": [],
      "name": "orchestrator",
      "outputs": [
        {
          "internalType": "address",
          "name": "",
          "type": "address"
        }
      ],
      "stateMutability": "view",
      "type": "function"
    },
    {
      "inputs": [],
      "name": "owner",
      "outputs": [
        {
          "internalType": "address",
          "name": "",
          "type": "address"
        }
      ],
      "stateMutability": "view",
      "type": "function"
    },
    {
      "inputs": [
        {
          "internalType": "bytes32",
          "name": "jobId",
          "type": "bytes32"
        },
        {
          "internalType": "bytes32",
          "name": "receiptHash",
          "type": "bytes32"
        }
      ],
      "name": "releaseEscrow",
      "outputs": [],
      "stateMutability": "nonpayable",
      "type": "function"
    },
    {
      "inputs": [],
      "name": "renounceOwnership",
      "outputs": [],
      "stateMutability": "nonpayable",
      "type": "function"
    },
    {
      "inputs": [
        {
          "internalType": "bytes32",
          "name": "jobId",
          "type": "bytes32"
        },
        {
          "internalType": "enum FusioEscrow.FaultClass",
          "name": "faultClass",
          "type": "uint8"
        }
      ],
      "name": "returnEscrow",
      "outputs": [],
      "stateMutability": "nonpayable",
      "type": "function"
    },
    {
      "inputs": [
        {
          "internalType": "address",
          "name": "_orchestrator",
          "type": "address"
        }
      ],
      "name": "setOrchestrator",
      "outputs": [],
      "stateMutability": "nonpayable",
      "type": "function"
    },
    {
      "inputs": [],
      "name": "token",
      "outputs": [
        {
          "internalType": "contract FusioToken",
          "name": "",
          "type": "address"
        }
      ],
      "stateMutability": "view",
      "type": "function"
    },
    {
      "inputs": [
        {
          "internalType": "address",
          "name": "newOwner",
          "type": "address"
        }
      ],
      "name": "transferOwnership",
      "outputs": [],
      "stateMutability": "nonpayable",
      "type": "function"
    }
  ],
  "bytecode": "0x608060405234801561001057600080fd5b50604051610ed4380380610ed483398101604081905261002f916100fc565b338061005557604051631e4fbdf760e01b81526000600482015260240160405180910390fd5b61005e81610090565b50600180546001600160a01b039384166001600160a01b0319918216179091556002805492909316911617905561012f565b600080546001600160a01b038381166001600160a01b0319831681178455604051919092169283917f8be0079c531659141344cd1fd0a4f28419497f9722a3daafe3b4186f6b6457e09190a35050565b80516001600160a01b03811681146100f757600080fd5b919050565b6000806040838503121561010f57600080fd5b610118836100e0565b9150610126602084016100e0565b90509250929050565b610d968061013e6000396000f3fe608060405234801561001057600080fd5b50600436106100b45760003560e01c8063b74795d911610071578063b74795d9146101cb578063cd28ef0d146101de578063e689a905146101f1578063f2fde38b14610204578063f729cf0d14610217578063fc0c546a1461023757600080fd5b806303e55f1c146100b95780632081f4c8146100ce57806338ed7cfc1461010a5780635b7d6b7e1461018b578063715018a61461019e5780638da5cb5b146101a6575b600080fd5b6100cc6100c7366004610af0565b61024a565b005b6100f46100dc366004610b25565b60009081526003602052604090206006015460ff1690565b6040516101019190610b68565b60405180910390f35b610176610118366004610b25565b60036020819052600091825260409091208054600182015460028301549383015460048401546005850154600686015460079096015494966001600160a01b039485169694169492939192909160ff80821692610100909204169089565b60405161010199989796959493929190610b8c565b6100cc610199366004610bef565b610509565b6100cc6106cd565b6000546001600160a01b03165b6040516001600160a01b039091168152602001610101565b6002546101b3906001600160a01b031681565b6100cc6101ec366004610c11565b6106e1565b6100cc6101ff366004610c33565b61070b565b6100cc610212366004610c11565b6108e6565b61022a610225366004610b25565b610924565b6040516101019190610c67565b6001546101b3906001600160a01b031681565b60008381526003602052604081206006015460ff16600481111561027057610270610b3e565b146102b75760405162461bcd60e51b81526020600482015260126024820152714a6f6220616c72656164792065786973747360701b60448201526064015b60405180910390fd5b600081116102fc5760405162461bcd60e51b81526020600482015260126024820152710416d6f756e74206d757374206265203e20360741b60448201526064016102ae565b6001546040516323b872dd60e01b8152336004820152306024820152604481018390526001600160a01b03909116906323b872dd906064016020604051808303816000875af1158015610353573d6000803e3d6000fd5b505050506040513d601f19601f820116820180604052508101906103779190610ce9565b6103935760405162461bcd60e51b81526004016102ae90610d0b565b60408051610120810182528481523360208201526001600160a01b0384169181019190915260608101829052426080820152600060a082015260c0810160018152602001600081526000602091820181905285815260038083526040918290208451815592840151600180850180546001600160a01b039384166001600160a01b03199182161790915593860151600286018054919093169416939093179055606084015190830155608083015160048084019190915560a0840151600584015560c08401516006840180549193909260ff1990921691849081111561047b5761047b610b3e565b021790555060e082015160068201805461ff0019166101008360058111156104a5576104a5610b3e565b02179055506101009190910151600790910155604080513381526001600160a01b038416602082015290810182905283907f67c0e575ec33936baed68573e9d18e8b31c02795c3f40245305cced991ea1f36906060015b60405180910390a2505050565b6002546001600160a01b031633146105575760405162461bcd60e51b815260206004820152601160248201527027b7363c9037b931b432b9ba3930ba37b960791b60448201526064016102ae565b60008281526003602052604090206001600682015460ff16600481111561058057610580610b3e565b146105be5760405162461bcd60e51b815260206004820152600e60248201526d4a6f62206e6f742061637469766560901b60448201526064016102ae565b60068101805460ff191660029081179091554260058301556007820183905560015490820154600383015460405163a9059cbb60e01b81526001600160a01b039283166004820152602481019190915291169063a9059cbb906044016020604051808303816000875af1158015610639573d6000803e3d6000fd5b505050506040513d601f19601f8201168201806040525081019061065d9190610ce9565b6106795760405162461bcd60e51b81526004016102ae90610d0b565b60028101546003820154604080516001600160a01b0390931683526020830191909152810183905283907f4b2ed371dda34e719c46bccc6dbc504a2a5e56cbf6a25dd2ede1b3b438892455906060016104fc565b6106d5610a57565b6106df6000610a84565b565b6106e9610a57565b600280546001600160a01b0319166001600160a01b0392909216919091179055565b6002546001600160a01b031633146107595760405162461bcd60e51b815260206004820152601160248201527027b7363c9037b931b432b9ba3930ba37b960791b60448201526064016102ae565b60008281526003602052604090206001600682015460ff16600481111561078257610782610b3e565b146107c05760405162461bcd60e51b815260206004820152600e60248201526d4a6f62206e6f742061637469766560901b60448201526064016102ae565b600681018054600360ff198216811783554260058086019190915585939261ffff1916909117906101009084908111156107fc576107fc610b3e565b02179055506001805490820154600383015460405163a9059cbb60e01b81526001600160a01b039283166004820152602481019190915291169063a9059cbb906044016020604051808303816000875af115801561085e573d6000803e3d6000fd5b505050506040513d601f19601f820116820180604052508101906108829190610ce9565b61089e5760405162461bcd60e51b81526004016102ae90610d0b565b6001810154600382015460405185927f357c518e6f1f11be956d0878ba4556ac62d7cb419ab8f03e7c1e397061daced4926104fc926001600160a01b03909216918790610d34565b6108ee610a57565b6001600160a01b03811661091857604051631e4fbdf760e01b8152600060048201526024016102ae565b61092181610a84565b50565b6109736040805161012081018252600080825260208201819052918101829052606081018290526080810182905260a081018290529060c0820190815260200160008152600060209091015290565b6000828152600360208181526040928390208351610120810185528154815260018201546001600160a01b03908116938201939093526002820154909216938201939093529082015460608201526004808301546080830152600583015460a0830152600683015491929160c084019160ff909116908111156109f8576109f8610b3e565b6004811115610a0957610a09610b3e565b81526020016006820160019054906101000a900460ff166005811115610a3157610a31610b3e565b6005811115610a4257610a42610b3e565b81526020016007820154815250509050919050565b6000546001600160a01b031633146106df5760405163118cdaa760e01b81523360048201526024016102ae565b600080546001600160a01b038381166001600160a01b0319831681178455604051919092169283917f8be0079c531659141344cd1fd0a4f28419497f9722a3daafe3b4186f6b6457e09190a35050565b80356001600160a01b0381168114610aeb57600080fd5b919050565b600080600060608486031215610b0557600080fd5b83359250610b1560208501610ad4565b9150604084013590509250925092565b600060208284031215610b3757600080fd5b5035919050565b634e487b7160e01b600052602160045260246000fd5b60058110610b6457610b64610b3e565b9052565b60208101610b768284610b54565b92915050565b60068110610b6457610b64610b3e565b8981526001600160a01b03898116602083015288166040820152606081018790526080810186905260a081018590526101208101610bcd60c0830186610b54565b610bda60e0830185610b7c565b826101008301529a9950505050505050505050565b60008060408385031215610c0257600080fd5b50508035926020909101359150565b600060208284031215610c2357600080fd5b610c2c82610ad4565b9392505050565b60008060408385031215610c4657600080fd5b82359150602083013560068110610c5c57600080fd5b809150509250929050565b60006101208201905082518252602083015160018060a01b0380821660208501528060408601511660408501525050606083015160608301526080830151608083015260a083015160a083015260c0830151610cc660c0840182610b54565b5060e0830151610cd960e0840182610b7c565b5061010092830151919092015290565b600060208284031215610cfb57600080fd5b81518015158114610c2c57600080fd5b6020808252600f908201526e151c985b9cd9995c8819985a5b1959608a1b604082015260600190565b6001600160a01b03841681526020810183905260608101610d586040830184610b7c565b94935050505056fea26469706673582212200065707f246234f7e23cc1addecce22f30aa5470929427ddae403cef4cf1db9d64736f6c63430008180033",
  "linkReferences": {},
  "deployedLinkReferences": {}
}